:1000000063C0CEC17CC07BC07AC079C078C077C0E5
:1000100076C075C074C073C072C071C070C06FC04C
:100020006EC06DC06CC0090222000101008032095F
:100030000400000103000000092101010001222346
:10004000000705810308000A1201100100000008E2
:10005000424231E100010102000110034800490061
:1000600044004B0065007900730012036F006200CA
:100070006400650076002E0061007400040309042A
:1000800005010906A101050719E029E71500250169
:100090007501950881029501750825651900296586
:1000A0008100C000000204020502060207020802E5
:1000B00009020A020B020C020D020E020F021002CC
:1000C000110212021302140011241FBECFE5D4E066
:1000D000DEBFCDBF10E0A0E6B0E0E6E5F7E002C08D
:1000E00005900D92A236B107D9F710E0A2E6B0E074
:1000F00001C01D92AC39B107E1F7E1D22AC380CF2C
:10010000CF93C62F2091710024FF07C02091720069
:1001100038E823272093720003C02AE5209371005A
:100120002C2FFC01A3E7B0E081918D932150121692
:10013000DCF383E790E06C2F2FD1CC5FC09371008C
:10014000CF910895CF93DF9380918200835087FDF4
:10015000ABC020917F0090917E009D3209F0A2C03B
:10016000883009F09FC08CE090E0821B9109EC017F
:10017000CA57DF4F23EC209366002AE520936000E6
:10018000109262002881207619F0CE0168D281C0D9
:100190003A8110926F002981222331F4109270006D
:1001A0002FE630E082E071C0253019F430938300EF
:1001B00069C0263009F050C0FC01E857FF4F20818C
:1001C00087579F4FFC018081813019F488E490E0CB
:1001D0001AC0823041F486E290E0909381008093CF
:1001E000800082E235C08330F1F4222341F48CE7B1
:1001F00090E0909381008093800084E029C02130BA
:1002000041F48AE690E0909381008093800082E13F
:100210001FC02230E1F48AE590E090938100809342
:10022000800080E115C0813241F488E390E0909332
:1002300081008093800089E00BC0823241F480E825
:1002400090E0909381008093800083E201C080E081
:1002500090E4909362001DC0283069F0293019F4B1
:10026000309385000FC02A3049F02B3059F48BE4CD
:100270008093720007C025E830E002C02FE630E02E
:1002800081E003C02FE630E080E0309381002093CE
:1002900080009F81992321F49E81981708F4892F6B
:1002A00080936100109282008091600084FF45C0BD
:1002B000809161008F3F09F440C0C82F893008F059
:1002C000C8E08C1B809361008091660098E88927C4
:1002D00080936600CC2329F1809180009091810069
:1002E0002091620026FF0AC0FC012C2FA7E6B0E097
:1002F00034913D9331962150D9F708C0DC012C2F61
:10030000E7E6F0E03D9131932150E1F72C2F2150A9
:1003100030E02F5F3F4F280F391F3093810020932B
:10032000800087E690E06C2F37D0CC5FCC3019F09E
:100330008FEF80936100C093600084E190B395706B
:1003400031F48150D9F71092830010927D00DF9133
:10035000CF91089585B7836085BF8BB780648BBFCD
:100360008BE4809372008AE5809371000895A82F32
:10037000B92F80E090E041E050EA609530E009C09C
:100380002D9182279795879510F084279527305EC9
:10039000C8F36F5FA8F30895EADF8D939D930895E6
:1003A000CF93CFB7CF93C395809BE9F7809B09C0CC
:1003B000809B07C0809B05C0809B03C0809B01C0C1
:1003C000A3C0DF93C0917F00DD27CA57DF4F809B1A
:1003D00002C0DF91EBCF2F930F931F9300B32FEF4A
:1003E00000FB20F94F933F9310B34FEF012700FB21
:1003F00021F93BE031C04E7F012F10B3216028C0AE
:10040000102F4D7F2260000000B329C04B7F246075
:10041000012F000010B32BC010B3477F28602AC003
:100420004F7E00B320612CC04F7D10B320622FC0DF
:100430004F7B00B3206432C0422700B349934FEF93
:100440000000102710FB20F910B31570C9F1297FA7
:1004500091F2012700FB21F900B3237F89F231508B
:1004600058F1102710FB22F910B3277E79F20127EB
:1004700000FB23F92F7C81F200B3102710FB24F935
:100480002F7971F200C010B3012700FB25F92F73FB
:1004900059F200C000B3102710FB26F9223040F2B9
:1004A00000C010B3012700FB27F9243028F64F774E
:1004B000206810B30000F9CF10E41ABF002719C05C
:1004C0003B503195C31BD04010E41ABF0881033C58
:1004D000F9F00B34E9F020917D001981110F12130E
:1004E000EDCF4A81441F093641F10D3211F0013E32
:1004F00029F7009384003F914F911F910F912F9105
:10050000DF91CAB7C6FD4FCFCF91CFBFCF9118951E
:1005100020918400222379F310918200112369F540
:1005200034306AF13093820020937E0010917F0076
:100530003BE0311B30937F0022C0009182000130EC
:10054000E4F40AE54F7049F43091600034FD19C0BD
:1005500000936000C6E6D0E018C03091710034FD11
:1005600010C000937100C2E7D0E00FC02795A8F437
:100570005150A9F4220F0000F9CF4AE503C042ED23
:1005800001C0432FC4E1D0E032E011B31560909A6E
:1005900011BB02B320E415E05F93012756E002BBD4
:1005A000279520F4515021F4220FF9CF012756E06E
:1005B00000003B5A02BBD0F2279528F4515029F491
:1005C000220F0000F9CF012756E0279502BB20F447
:1005D000515021F4220FF9CF012756E029913323FE
:1005E00002BB21F60A7F10918300110FC651D04043
:1005F00002BB11F010937D0010E41ABF016011B32B
:100600001A7F402F4A7F5F9100C000C002BB11BB20
:1006100042BB71CF26B391E080E0392F32238F5F48
:100620003323E1F0990F8630C1F723B391E080E0E6
:10063000392F322311F4895F0895990F8F5F863027
:10064000B9F720B380E098E0392F322311F4835FAB
:100650000895990F8F5F8530B9F780E00895FC0108
:1006600083E690E090938100809380008081807683
:10067000803209F58181813079F4CCDF90E0880FF8
:10068000991F8D559F4FFC01259134912093630054
:100690003093640082E00895823041F485E690E072
:1006A000909381008093800081E008958A3029F43E
:1006B00083818093650080E0089580E008952FE0B5
:1006C00088E190E00FB6F894A89581BD0FBE21BDDA
:1006D0008FEF88BB17BA85BB14BA8AEF82BB87E05D
:1006E00081BB82E081BB85E083BF34DE7894C0E0CB
:1006F00000E0D0E011E001C001E0A89523DD8ADF31
:10070000D81711F0D82F01E008B600FE08C018BFB6
:1007100080916500882319F0C53020F0C550002372
:1007200061F301C0C82F8091710084FFE5CFED2FE8
:10073000F0E0EE0FFF1FED55FF4F859194918093F0
:1007400063009093640083E690E062E0D9DC00E00F
:06075000D4CFF894FFCFA6
:020756005AFF48
:00000001FF
